:100000000C9462000C94C3030C949C030C948A001F
:100010000C948A000C948A000C948A000C948A0038
:100020000C948A000C948A000C948A000C948A0028
:100030000C948A000C948A000C948A000C948A0018
:100040000C9452030C948A000C9410040C94EA0350
:100050000C948A000C948A000C948A000C948A00F8
:100060000C948A000C948A000000000024002700F1
:100070002A0000000000250028002B0000000000DE
:1000800023002600290004040404040404040202DA
:100090000202020203030303030301020408102007
:1000A0004080010204081020010204081020000012
:1000B0000008000201000003040700000000000027
:1000C00000004D0711241FBECFEFD8E0DEBFCDBF2B
:1000D00011E0A0E0B1E0ECECF9E102C005900D9276
:1000E000A834B107D9F722E0A8E4B1E001C01D921D
:1000F000A431B207E1F710E0C2E6D0E004C02197D6
:10010000FE010E94130AC136D107C9F70E944204BA
:100110000C94E40C0C940000833081F028F48130BE
:1001200099F08230A9F008958730A9F08830C9F09D
:100130008430B1F4809180008F7D03C08091800075
:100140008F7780938000089584B58F7784BD08955C
:1001500084B58F7DFBCF8091B0008F778093B00006
:1001600008958091B0008F7DF9CFCF93DF93282F32
:1001700030E0F901E255FF4F8491F901E656FF4F57
:10018000D491F901EA57FF4FC491CC23A1F081111A
:100190000E948C00EC2FF0E0EE0FFF1FE458FF4FA1
:1001A000A591B491EC91ED2381E090E009F480E019
:1001B000DF91CF91089580E090E0FACF1F93CF9325
:1001C000DF93282F30E0F901E255FF4F8491F901C8
:1001D000E656FF4FD491F901EA57FF4FC491CC2363
:1001E000A9F0162F81110E948C00EC2FF0E0EE0F89
:1001F000FF1FEE58FF4FA591B4918FB7F894EC9183
:10020000111108C0D095DE23DC938FBFDF91CF9111
:100210001F910895DE2BF8CFCF93DF9390E0FC0180
:10022000E656FF4F24918A579F4FFC018491882303
:10023000D1F090E0880F991FFC01E859FF4FA5917C
:10024000B491FC01EE58FF4FC591D49161110EC0DD
:100250009FB7F8948C91E22FE0958E238C932881A0
:10026000E223E8839FBFDF91CF9108958FB7F89481
:10027000EC91E22BEC938FBFF6CF3FB7F8948091CF
:100280000A0290910B02A0910C02B0910D0226B5CA
:10029000A89B05C02F3F19F00196A11DB11D3FBFBE
:1002A000BA2FA92F982F8827BC01CD01620F711D8D
:1002B000811D911D42E0660F771F881F991F4A9587
:1002C000D1F708958F929F92AF92BF92CF92DF9213
:1002D000EF92FF924B015C010E943D016B017C019A
:1002E0000E943D016C197D098E099F09683E73408B
:1002F00081059105A8F321E0821A9108A108B108AF
:1003000088EEC80E83E0D81EE11CF11C8114910414
:10031000A104B10429F7FF90EF90DF90CF90BF9038
:10032000AF909F908F9008958F929F92AF92BF92BF
:10033000CF92DF92EF92FF9282E00E94B5007C01A3
:1003400084E00E94B500E816F90609F491C0809196
:10035000500190915101A0915201B0915301019629
:10036000A11DB11D8093500190935101A0935201A2
:10037000B09353018FB7F894C0900602D090070253
:10038000E0900802F09009028FBF609150017091D7
:10039000510180915201909153010E94F1084B014B
:1003A0005C0160914C0170914D0180914E019091E2
:1003B0004F010E94F1089B01AC01C501B4010E94EC
:1003C000D50720E030E040E752E40E94A60920E093
:1003D00034E244E759E40E94A6094B015C01809194
:1003E000480190914901A0914A01B0914B01A701A8
:1003F0009601281B390B4A0B5B0BA8E1B0E00E9469
:1004000099070E94EF089B01AC01C501B4010E944D
:10041000470820E030E04AE754E40E944708609330
:1004200060017093610180936201909363018091F8
:10043000500190915101A0915201B09153018093CC
:100440004C0190934D01A0934E01B0934F01C09287
:100450004801D0924901E0924A01F0924B01FF908D
:10046000EF90DF90CF90BF90AF909F908F900895C6
:100470008091500190915101A0915201B09153018E
:100480000197A109B1096ECF0895AF92BF92CF92A3
:10049000DF92EF92FF920F931F93CF93DF936C0144
:1004A0007B018B01040F151FEB015E01AE18BF0825
:1004B000C017D10759F06991D601ED91FC910190D7
:1004C000F081E02DC6010995892B79F7C501DF91EF
:1004D000CF911F910F91FF90EF90DF90CF90BF9041
:1004E000AF900895FC01538D448D252F30E0842F6B
:1004F00090E0821B930B541710F0CF96089501974C
:100500000895FC01918D828D981761F0A28DAE0F38
:10051000BF2FB11D5D968C91928D9F5F9F73928FBF
:1005200090E008958FEF9FEF0895FC01918D828DEB
:10053000981731F0828DE80FF11D858D90E00895B8
:100540008FEF9FEF0895FC01918D228D892F90E010
:10055000805C9F4F821B91098F739927089588E6CD
:1005600091E00E94A30221E0892B09F420E0822F70
:10057000089580E090E0892B29F00E94AF0281115C
:100580000C9400000895FC01A48DA80FB92FB11D93
:10059000A35ABF4F2C91848D90E001968F739927B9
:1005A000848FA689B7892C93A089B1898C91837097
:1005B00080648C93938D848D981306C00288F38990
:1005C000E02D80818F7D80830895EF92FF920F93BD
:1005D0001F93CF93DF93EC0181E0888F9B8D8C8DEF
:1005E00098131AC0E889F989808185FF15C09FB7E3
:1005F000F894EE89FF896083E889F98980818370A6
:10060000806480839FBF81E090E0DF91CF911F9154
:100610000F91FF90EF900895F62E0B8D10E00F5F75
:100620001F4F0F731127E02E8C8D8E110CC00FB64B
:1006300007FCFACFE889F989808185FFF5CFCE01E3
:100640000E94C302F1CFEB8DEC0FFD2FF11DE35A99
:10065000FF4FF0829FB7F8940B8FEA89FB89808166
:100660008062CFCFCF93DF93EC01888D8823B9F0E0
:10067000AA89BB89E889F9898C9185FD03C08081AD
:1006800086FD0DC00FB607FCF7CF8C9185FFF2CF2A
:10069000808185FFEDCFCE010E94C302E9CFDF91BB
:1006A000CF9108951F920F920FB60F9211242F939E
:1006B0003F938F939F93AF93BF9380910602909146
:1006C0000702A0910802B09109023091050223E0CF
:1006D000230F2D3758F50196A11DB11D209305025A
:1006E0008093060290930702A0930802B093090238
:1006F00080910A0290910B02A0910C02B0910D0220
:100700000196A11DB11D80930A0290930B02A09344
:100710000C02B0930D02BF91AF919F918F913F91C9
:100720002F910F900FBE0F901F90189526E8230F62
:100730000296A11DB11DD2CF1F920F920FB60F923C
:1007400011242F933F934F935F936F937F938F93D6
:100750009F93AF93BF93EF93FF93E0910201F091CA
:1007600003010995FF91EF91BF91AF919F918F91F7
:100770007F916F915F914F913F912F910F900FBE9D
:100780000F901F9018951F920F920FB60F92112481
:100790002F933F934F935F936F937F938F939F9389
:1007A000AF93BF93EF93FF93E0910001F0910101AC
:1007B0000995FF91EF91BF91AF919F918F917F919B
:1007C0006F915F914F913F912F910F900FBE0F90BE
:1007D0001F9018951F920F920FB60F9211242F930E
:1007E0003F934F935F936F937F938F939F93AF93B9
:1007F000BF93EF93FF9388E691E00E94C302FF91BD
:10080000EF91BF91AF919F918F917F916F915F9188
:100810004F913F912F910F900FBE0F901F90189501
:100820001F920F920FB60F9211242F938F939F93C5
:10083000EF93FF93E0917801F09179018081E0914D
:100840007E01F0917F0182FD1BC09081809181012A
:100850008F5F8F7320918201821741F0E0918101B7
:10086000F0E0E859FE4F958F80938101FF91EF9161
:100870009F918F912F910F900FBE0F901F90189501
:100880008081F4CFCF93DF93CDB7DEB728970FB633
:10089000F894DEBF0FBECDBF789484B5826084BD6E
:1008A00084B5816084BD85B5826085BD85B5816074
:1008B00085BD80916E00816080936E0010928100F2
:1008C00080918100826080938100809181008160AD
:1008D000809381008091800081608093800080916E
:1008E000B10084608093B1008091B00081608093FA
:1008F000B00080917A00846080937A0080917A00C1
:10090000826080937A0080917A00816080937A007F
:1009100080917A00806880937A001092C10061E033
:100920008BE00E940C0161E08AE00E940C0160E013
:1009300082E00E940C0160E084E00E940C0161E012
:100940008CE00E940C0184E991E090930101809376
:10095000000180916900836080936900E89AE091CA
:100960007801F091790182E08083E0917401F09147
:1009700075011082E0917601F09177018FEC808310
:1009800010928001E0917C01F0917D0186E08083EE
:10099000E0917A01F0917B01808180618083E09118
:1009A0007A01F0917B01808188608083E0917A01F7
:1009B000F0917B01808180688083E0917A01F091E1
:1009C0007B0180818F7D808345E050E06EE271E0A5
:1009D00088E691E00E94450242E050E064E371E065
:1009E00088E691E00E94450299EB292E90E0392E8D
:1009F00000E010E088E691E00E94A302892B09F450
:100A00005AC088E691E00E94A302892B09F453C0E2
:100A100088E691E00E9481028093580165E070E0D1
:100A200080E090E00E946201FF24F39480915801DD
:100A3000F81688F488E691E00E948102EF2DF0E03C
:100A4000E85AFE4F808365E070E080E090E00E940D
:100A50006201F394EBCF80915901813009F03AC1E2
:100A600080915A018093540180915B0180935501DC
:100A700080915C018093560180915D0180935701C4
:100A8000509154014091550130915601282F852FE6
:100A9000942FA32FB22F8093040190930501A0936C
:100AA0000601B093070146E050E068E571E088E692
:100AB00091E00E94450220916001309161014091D6
:100AC00062015091630160916401709165018091B0
:100AD0006601909167010E94D5076B017C012FB7D9
:100AE000F89460910602709107028091080290913B
:100AF00009022FBF0E94EF082B013C0160911801F1
:100B00007091190180911A0190911B010E94EF08C8
:100B10009B01AC01C301B2010E94D5074B015C01EE
:100B2000C301B2010E94C0086093180170931901BB
:100B300080931A0190931B012091040130910501CB
:100B40004091060150910701C701B6010E94A60914
:100B500069837A838B839C834090140150901501A4
:100B600060901601709017012091080130910901E1
:100B700040910A0150910B01C301B2010E94A609E4
:100B8000A50194010E94A6096D837E838F839887B7
:100B900020911001309111014091120150911301E7
:100BA000C701B6010E94D50720910C0130910D01BB
:100BB00040910E0150910F010E94A609A5019401D8
:100BC0000E9447084B015C01C0921001D0921101B4
:100BD000E0921201F0921301A3019201C701B60144
:100BE0000E94D6076093140170931501809316013B
:100BF000909317012D813E814F81588569817A81BB
:100C00008B819C810E94D607A50194010E94D60782
:100C10006B017C0161E070E080E090E00E94620185
:100C200020E030E046E253E4C701B6010E94A1098A
:100C300018160CF4DBC020E030E0A901C701B601B2
:100C40000E94420887FF03C0C12CD12C76018091FD
:100C50005E0190915F01892B09F4CFC0C701B601F5
:100C60000E94B9089B01AC01AFEFB0E00E94990768
:100C700026EA30E040E050E00E947A07CA01B9015C
:100C80000E94F1086B017C0161E08CE00E94DE00B3
:100C9000C701B6010E94B9084B017B0161E08BE0FE
:100CA0000E940C018114910409F0AFC060E08BE058
:100CB0000E94DE0060E08AE00E94DE00011511055E
:100CC00009F498CE0E94AF02882309F493CE0E94C3
:100CD000000090CE823021F580915A01809354011A
:100CE00080915B018093550180915C018093560156
:100CF00080915D01809357015091540140915501BD
:100D000030915601282F852F942FA32FB22F809337
:100D1000080190930901A0930A01B0930B01C3CE7F
:100D2000833021F580915A018093540180915B01B9
:100D30008093550180915C018093560180915D0103
:100D400080935701509154014091550130915601C3
:100D5000282F852F942FA32FB22F80930C019093CF
:100D60000D01A0930E01B0930F019DCE843021F5AB
:100D700080915A018093540180915B0180935501C9
:100D800080915C018093560180915D0180935701B1
:100D9000509154014091550130915601282F852FD3
:100DA000942FA32FB22F8093640190936501A09399
:100DB0006601B093670177CE853079F481E090E0E9
:100DC00020915E0130915F01232B11F090E080E0D3
:100DD00090935F0180935E016ECE87E391E09F93D5
:100DE0008F930E94190A0F900F9065CEC12CD12CC1
:100DF00085E2E82E83E4F82E2ACF60E08CE00E94A2
:100E0000DE00C12CD12C760143CFFFEF8F16910469
:100E100011F461E04CCFF1018491833021F148F469
:100E20008130B9F08230D1F0F0E8EF16F1048CF7A0
:100E30003DCF873011F1883041F18430A9F780919E
:100E4000800080628093800090928B0080928A0064
:100E500031CF84B5806884BD87BC2CCF84B58062D7
:100E600084BD88BC27CF80918000806880938000FB
:100E700090928900809288001DCF8091B000806898
:100E80008093B0008092B30015CF8091B000806253
:100E90008093B0008092B4000DCFE8E6F1E01382B9
:100EA000128288EE93E0A0E0B0E084839583A6836D
:100EB000B78380E291E09183808385EC90E0958711
:100EC000848784EC90E09787868780EC90E0918B14
:100ED000808B81EC90E0938B828B82EC90E0958B01
:100EE000848B86EC90E0978B868B118E128E138EFE
:100EF000148E0895052E97FB1EF400940E9491070E
:100F000057FD07D00E94A40707FC03D04EF40C94B1
:100F1000910750954095309521953F4F4F4F5F4F2A
:100F2000089590958095709561957F4F8F4F9F4F55
:100F300008950E94C607A59F900DB49F900DA49F91
:100F4000800D911D11240895A1E21A2EAA1BBB1B2E
:100F5000FD010DC0AA1FBB1FEE1FFF1FA217B30785
:100F6000E407F50720F0A21BB30BE40BF50B661F9B
:100F7000771F881F991F1A9469F76095709580955F
:100F800090959B01AC01BD01CF010895A29FB001D6
:100F9000B39FC001A39F700D811D1124911DB29FAD
:100FA000700D811D1124911D08955058BB27AA274B
:100FB0000E94ED070C9467090E94590938F00E94BD
:100FC000600920F039F49F3F19F426F40C94560977
:100FD0000EF4E095E7FB0C945009E92F0E94780984
:100FE00058F3BA17620773078407950720F079F45E
:100FF000A6F50C949A090EF4E0950B2EBA2FA02DAD
:101000000B01B90190010C01CA01A0011124FF27B5
:10101000591B99F0593F50F4503E68F11A16F040B0
:10102000A22F232F342F4427585FF3CF46953795AF
:101030002795A795F0405395C9F77EF41F16BA0B74
:10104000620B730B840BBAF09150A1F0FF0FBB1F22
:10105000661F771F881FC2F70EC0BA0F621F731F6B
:10106000841F48F4879577956795B795F7959E3FC8
:1010700008F0B0CF9395880F08F09927EE0F979559
:10108000879508950E942C0908F481E008950E9434
:101090005B080C9467090E94600958F00E94590986
:1010A00040F029F45F3F29F00C94500951110C9441
:1010B0009B090C9456090E94780968F39923B1F3AF
:1010C000552391F3951B550BBB27AA27621773076E
:1010D000840738F09F5F5F4F220F331F441FAA1F02
:1010E000A9F335D00E2E3AF0E0E832D091505040BE
:1010F000E695001CCAF72BD0FE2F29D0660F771F6C
:10110000881FBB1F261737074807AB07B0E809F051
:10111000BB0B802DBF01FF2793585F4F3AF09E3FD6
:10112000510578F00C9450090C949B095F3FE4F34F
:10113000983ED4F3869577956795B795F7959F5F19
:10114000C9F7880F911D9695879597F90895E1E065
:10115000660F771F881FBB1F621773078407BA07C4
:1011600020F0621B730B840BBA0BEE1F88F7E0951F
:1011700008950E94C0086894B1110C949B090895C9
:101180000E94800988F09F5798F0B92F9927B7518E
:10119000B0F0E1F0660F771F881F991F1AF0BA951B
:1011A000C9F714C0B13091F00E949A09B1E00895D6
:1011B0000C949A09672F782F8827B85F39F0B93FC8
:1011C000CCF3869577956795B395D9F73EF49095CE
:1011D0008095709561957F4F8F4F9F4F0895E8944C
:1011E00009C097FB3EF490958095709561957F4F6F
:1011F0008F4F9F4F9923A9F0F92F96E9BB2793951D
:10120000F695879577956795B795F111F8CFFAF42C
:10121000BB0F11F460FF1BC06F5F7F4F8F4F9F4F5D
:1012200016C0882311F096E911C0772321F09EE8BB
:10123000872F762F05C0662371F096E8862F70E021
:1012400060E02AF09A95660F771F881FDAF7880FFB
:101250009695879597F90895990F0008550FAA0B51
:10126000E0E8FEEF16161706E807F907C0F01216B9
:101270001306E407F50798F0621B730B840B950BBC
:1012800039F40A2661F0232B242B252B21F4089511
:101290000A2609F4A140A6958FEF811D811D0895AE
:1012A00097F99F6780E870E060E008959FEF80EC19
:1012B000089500240A9416161706180609060895BC
:1012C00000240A9412161306140605060895092E22
:1012D0000394000C11F4882352F0BB0F40F4BF2B91
:1012E00011F460FF04C06F5F7F4F8F4F9F4F0895D1
:1012F00057FD9058440F551F59F05F3F71F04795C7
:10130000880F97FB991F61F09F3F79F087950895AB
:10131000121613061406551FF2CF4695F1DF08C0CA
:10132000161617061806991FF1CF869571056105E7
:1013300008940895E894BB2766277727CB0197F98F
:1013400008950E942C0908F48FEF08950E94B909AE
:101350000C9467090E94590938F00E94600920F036
:10136000952311F00C9450090C94560911240C94F7
:101370009B090E94780970F3959FC1F3950F50E087
:10138000551F629FF001729FBB27F00DB11D639F37
:10139000AA27F00DB11DAA1F649F6627B00DA11DDD
:1013A000661F829F2227B00DA11D621F739FB00D83
:1013B000A11D621F839FA00D611D221F749F3327F3
:1013C000A00D611D231F849F600D211D822F762F8C
:1013D0006A2F11249F5750409AF0F1F088234AF069
:1013E000EE0FFF1FBB1F661F771F881F91505040D5
:1013F000A9F79E3F510580F00C9450090C949B096D
:101400005F3FE4F3983ED4F3869577956795B7955B
:10141000F795E7959F5FC1F7FE2B880F911D969575
:10142000879597F90895EE0FFF1F0590F491E02D31
:101430000994B0E0A0E0EFE1FAE00C94BD0CAE013D
:101440004B5F5F4FFA0161917191AF018091100282
:10145000909111020E942F0AE2E00C94D90CABE0AB
:10146000B0E0E5E3FAE00C94AD0C7C013B018A01AD
:10147000FC0117821682838181FFC8C1CE010196CB
:101480005C01F7019381F30193FD859193FF8191B5
:101490003F01882309F453C1853239F493FD8591C6
:1014A00093FF81913F01853229F4B70190E00E94BA
:1014B0001F0CE7CF912C212C312CFFE1F31538F0D4
:1014C0008B3211F190F4803209F1833229F137FC2B
:1014D0003CC020ED280F2A3050F536FE20C08AE0AF
:1014E000989E200D1124922E06C08D3291F08033EB
:1014F00071F7689430F8F30193FD859193FF819122
:101500003F018111DACF21C0689431F8689432F834
:10151000F2CF689433F8EFCF689434F8ECCFEAE078
:101520002E9E200D1124222E689435F8E4CF8E32A1
:1015300029F436FC04C1689436F8DDCF8C3619F4F2
:10154000689437F8D8CF8836B1F2982F9F7D95549C
:101550009330E0F08336A1F18337C1F1833509F090
:1015600063C02801F2E04F0E511CF801C080D18009
:10157000692D70E036FC02C06FEF7FEFC6010E945C
:10158000090C4C01689437F882010AC00C5F1F4FA8
:10159000FFE3F98388248394912C6501E89437F85C
:1015A00033FE2DC0522C8114910471F5552009F49D
:1015B00068CFB70180E290E00E941F0C5A94F6CFEA
:1015C000F801808189830E5F1F4FE4CF2801F2E08C
:1015D0004F0E511CF801C080D180692D70E036FC9F
:1015E00002C06FEF7FEFC6010E94140C4C01820114
:1015F000D5CFB70180E290E00E941F0C2A942814F6
:10160000190409F0B0F7CECFF60137FC859137FE0B
:1016100081916F01B70190E00E941F0C51105A9404
:10162000F1E08F1A9108BFCF843619F0893609F09E
:1016300077C0F80137FE6BC0608171818281938130
:101640000C5F1F4FF32DFF763F2E97FF09C090953B
:101650008095709561957F4F8F4F9F4F689437F8B5
:101660002AE030E0A5010E944F0CC82ECA188C2C2D
:10167000432C36FE0CC0E89440F8C91440F434FE04
:1016800005C032FC03C0F32DFE7E4F2E892C44FE94
:1016900095C0FE01EC0DF11D8081803309F087C0FB
:1016A000242D297E422E842D8870582E43FC95C00F
:1016B00040FE8FC09C2C821418F42C0C922C98188D
:1016C00044FE91C0B70180E390E00E941F0C42FEEF
:1016D00009C088E790E041FE02C088E590E0B701CC
:1016E0000E941F0CC91408F48AC0CA94D12C9FEF21
:1016F000C91AD90ACA0CDB1CF60182916F01B70125
:1017000090E00E941F0CAC14BD04B1F74FCF608174
:101710007181072E000C880B990B0E5F1F4F92CF23
:10172000D32CE894D4F82AE030E0853739F1232D22
:10173000297FD22E8F3601F148F48835A9F0F701C0
:10174000868197812B96E2E10C94C90C803749F091
:101750008837A9F7D4FE02C06894D2F820E130E0BF
:101760000DC06894D4F8F6CF34FE03C0822F866093
:10177000D82E20E132E002C028E030E0F801D7FEA8
:101780000FC060817181828193810C5F1F4FA50121
:101790000E944F0CC82ECA183D2CE89437F867CF2A
:1017A0006081718190E080E00E5F1F4FF0CF42FCBE
:1017B00002C0839478CF8394839475CF842D8678E8
:1017C00009F471CFF6CFB70180E290E00E941F0CC0
:1017D00083948214C0F3512C73CF522C5818821466
:1017E00008F46ECFF8CF842D867809F47BCF8BE296
:1017F00041FE80E247FC8DE2B70190E071CFB70176
:1018000080E390E00E941F0C9A946CCF8FEF9FEFC3
:1018100099CFFC010590615070400110D8F7809578
:1018200090958E0F9F1F0895FC01615070400190AC
:101830000110D8F7809590958E0F9F1F08950F93F4
:101840001F93CF93DF93182F092FEB018B8181FD1D
:1018500009C01FEF0FEF812F902FDF91CF911F91C4
:101860000F91089582FF14C02E813F818C819D814C
:10187000281739073CF4E881F981CF010196998353
:10188000888310838E819F8101969F838E83E3CF0F
:10189000E885F985812F0995892BA1F3DACFFA0123
:1018A000AA27283051F1203181F1E8946F936E7F9F
:1018B0006E5F7F4F8F4F9F4FAF4FB1E03ED0B4E090
:1018C0003CD0670F781F891F9A1FA11D680F791FD1
:1018D0008A1F911DA11D6A0F711D811D911DA11DE2
:1018E00020D009F468943F912AE0269F11243019F2
:1018F000305D3193DEF6CF010895462F4770405D8D
:101900004193B3E00FD0C9F7F6CF462F4F70405D3B
:101910004A3318F0495D31FD4052419302D0A9F796
:10192000EACFB4E0A6959795879577956795BA9590
:10193000C9F700976105710508959B01AC010A2E56
:1019400006945795479537952795BA95C9F7620F2D
:10195000731F841F951FA01D08952F923F924F92D1
:101960005F926F927F928F929F92AF92BF92CF922F
:10197000DF92EF92FF920F931F93CF93DF93CDB738
:10198000DEB7CA1BDB0B0FB6F894DEBF0FBECDBFB0
:1019900009942A88398848885F846E847D848C8481
:1019A0009B84AA84B984C884DF80EE80FD800C818A
:1019B0001B81AA81B981CE0FD11D0FB6F894DEBF6D
:0C19C0000FBECDBFED010895F894FFCFDD
:1019CC00440244020000803F0AD7A33B0000003FC2
:1019DC0000000000000000000000000000000000FB
:1019EC00E502450272023203A3028102950273746E
:1019FC00617274000D0A00556E6B6E6F776E2070FD
:081A0C00726F63657373210022
:00000001FF
